{
  "contractName": "Voting",
  "abi": [
    {
      "inputs": [],
      "stateMutability": "nonpayable",
      "type": "constructor"
    },
    {
      "inputs": [
        {
          "internalType": "uint256",
          "name": "",
          "type": "uint256"
        }
      ],
      "name": "AllVoter",
      "outputs": [
        {
          "internalType": "uint256",
          "name": "id",
          "type": "uint256"
        },
        {
          "internalType": "string",
          "name": "name",
          "type": "string"
        },
        {
          "internalType": "string",
          "name": "ballotName",
          "type": "string"
        }
      ],
      "stateMutability": "view",
      "type": "function",
      "constant": true
    },
    {
      "inputs": [],
      "name": "TDP",
      "outputs": [
        {
          "internalType": "uint256",
          "name": "",
          "type": "uint256"
        }
      ],
      "stateMutability": "view",
      "type": "function",
      "constant": true
    },
    {
      "inputs": [],
      "name": "YCP",
      "outputs": [
        {
          "internalType": "uint256",
          "name": "",
          "type": "uint256"
        }
      ],
      "stateMutability": "view",
      "type": "function",
      "constant": true
    },
    {
      "inputs": [
        {
          "internalType": "uint256",
          "name": "",
          "type": "uint256"
        }
      ],
      "name": "candidateMap",
      "outputs": [
        {
          "internalType": "uint256",
          "name": "id",
          "type": "uint256"
        },
        {
          "internalType": "bool",
          "name": "voted",
          "type": "bool"
        }
      ],
      "stateMutability": "view",
      "type": "function",
      "constant": true
    },
    {
      "inputs": [],
      "name": "owner",
      "outputs": [
        {
          "internalType": "address",
          "name": "",
          "type": "address"
        }
      ],
      "stateMutability": "view",
      "type": "function",
      "constant": true
    },
    {
      "inputs": [],
      "name": "totalVotes",
      "outputs": [
        {
          "internalType": "uint256",
          "name": "",
          "type": "uint256"
        }
      ],
      "stateMutability": "view",
      "type": "function",
      "constant": true
    },
    {
      "inputs": [],
      "name": "voter",
      "outputs": [
        {
          "internalType": "uint256",
          "name": "id",
          "type": "uint256"
        },
        {
          "internalType": "string",
          "name": "name",
          "type": "string"
        },
        {
          "internalType": "string",
          "name": "ballotName",
          "type": "string"
        }
      ],
      "stateMutability": "view",
      "type": "function",
      "constant": true
    },
    {
      "inputs": [
        {
          "internalType": "uint256",
          "name": "",
          "type": "uint256"
        }
      ],
      "name": "voterListMap",
      "outputs": [
        {
          "internalType": "uint256",
          "name": "id",
          "type": "uint256"
        },
        {
          "internalType": "string",
          "name": "name",
          "type": "string"
        },
        {
          "internalType": "string",
          "name": "ballotName",
          "type": "string"
        }
      ],
      "stateMutability": "view",
      "type": "function",
      "constant": true
    },
    {
      "inputs": [],
      "name": "votes",
      "outputs": [
        {
          "internalType": "uint256",
          "name": "",
          "type": "uint256"
        }
      ],
      "stateMutability": "view",
      "type": "function",
      "constant": true
    },
    {
      "inputs": [
        {
          "internalType": "uint256",
          "name": "_id",
          "type": "uint256"
        },
        {
          "internalType": "string",
          "name": "_name",
          "type": "string"
        },
        {
          "internalType": "string",
          "name": "_ballotname",
          "type": "string"
        }
      ],
      "name": "VoteRegister",
      "outputs": [],
      "stateMutability": "nonpayable",
      "type": "function"
    },
    {
      "inputs": [
        {
          "internalType": "uint256",
          "name": "_id",
          "type": "uint256"
        }
      ],
      "name": "Check_Registration",
      "outputs": [
        {
          "components": [
            {
              "internalType": "uint256",
              "name": "id",
              "type": "uint256"
            },
            {
              "internalType": "string",
              "name": "name",
              "type": "string"
            },
            {
              "internalType": "string",
              "name": "ballotName",
              "type": "string"
            }
          ],
          "internalType": "struct Voting.VoterList",
          "name": "",
          "type": "tuple"
        }
      ],
      "stateMutability": "view",
      "type": "function",
      "constant": true
    },
    {
      "inputs": [],
      "name": "GetAllVoters",
      "outputs": [
        {
          "components": [
            {
              "internalType": "uint256",
              "name": "id",
              "type": "uint256"
            },
            {
              "internalType": "string",
              "name": "name",
              "type": "string"
            },
            {
              "internalType": "string",
              "name": "ballotName",
              "type": "string"
            }
          ],
          "internalType": "struct Voting.VoterList[]",
          "name": "",
          "type": "tuple[]"
        }
      ],
      "stateMutability": "view",
      "type": "function",
      "constant": true
    },
    {
      "inputs": [
        {
          "internalType": "uint256",
          "name": "_id",
          "type": "uint256"
        }
      ],
      "name": "YCP_polling",
      "outputs": [
        {
          "internalType": "string",
          "name": "",
          "type": "string"
        }
      ],
      "stateMutability": "nonpayable",
      "type": "function"
    },
    {
      "inputs": [
        {
          "internalType": "uint256",
          "name": "_id",
          "type": "uint256"
        }
      ],
      "name": "TDP_polling",
      "outputs": [
        {
          "internalType": "string",
          "name": "",
          "type": "string"
        }
      ],
      "stateMutability": "nonpayable",
      "type": "function"
    }
  ],
  "bytecode": "0x6080604052600060015560006002556000600355600060045534801561002457600080fd5b50336000806101000a81548173ffffffffffffffffffffffffffffffffffffffff021916908373ffffffffffffffffffffffffffffffffffffffff160217905550611bf8806100746000396000f3fe608060405234801561001057600080fd5b50600436106100ea5760003560e01c80636c1b45071161008c578063a6e80c3c11610066578063a6e80c3c1461027a578063b298b04114610298578063e168c3ec146102c8578063f0887e4f146102e6576100ea565b80636c1b45071461020e5780638da5cb5b1461022c5780638ed91e741461024a576100ea565b806351efd580116100c857806351efd5801461015e5780635bbc3eda146101905780636098f7a7146101ac5780636a70c4ae146101dc576100ea565b80630a4fa331146100ef5780630d15fd771461012057806346c96aac1461013e575b600080fd5b61010960048036038101906101049190610f98565b610304565b604051610117929190610fef565b60405180910390f35b610128610335565b6040516101359190611018565b60405180910390f35b61014661033b565b604051610155939291906110c3565b60405180910390f35b61017860048036038101906101739190610f98565b610463565b604051610187939291906110c3565b60405180910390f35b6101aa60048036038101906101a5919061123d565b6105ad565b005b6101c660048036038101906101c19190610f98565b610727565b6040516101d391906112c8565b60405180910390f35b6101f660048036038101906101f19190610f98565b6108d2565b604051610205939291906110c3565b60405180910390f35b610216610a0c565b6040516102239190611018565b60405180910390f35b610234610a12565b604051610241919061132b565b60405180910390f35b610264600480360381019061025f9190610f98565b610a36565b60405161027191906113f6565b60405180910390f35b610282610be9565b60405161028f9190611018565b60405180910390f35b6102b260048036038101906102ad9190610f98565b610bef565b6040516102bf91906112c8565b60405180910390f35b6102d0610d9a565b6040516102dd9190611018565b60405180910390f35b6102ee610da0565b6040516102fb9190611531565b60405180910390f35b60056020528060005260406000206000915090508060000154908060010160009054906101000a900460ff16905082565b60015481565b600780600001549080600101805461035290611582565b80601f016020809104026020016040519081016040528092919081815260200182805461037e90611582565b80156103cb5780601f106103a0576101008083540402835291602001916103cb565b820191906000526020600020905b8154815290600101906020018083116103ae57829003601f168201915b5050505050908060020180546103e090611582565b80601f016020809104026020016040519081016040528092919081815260200182805461040c90611582565b80156104595780601f1061042e57610100808354040283529160200191610459565b820191906000526020600020905b81548152906001019060200180831161043c57829003601f168201915b5050505050905083565b600a818154811061047357600080fd5b906000526020600020906003020160009150905080600001549080600101805461049c90611582565b80601f01602080910402602001604051908101604052809291908181526020018280546104c890611582565b80156105155780601f106104ea57610100808354040283529160200191610515565b820191906000526020600020905b8154815290600101906020018083116104f857829003601f168201915b50505050509080600201805461052a90611582565b80601f016020809104026020016040519081016040528092919081815260200182805461055690611582565b80156105a35780601f10610578576101008083540402835291602001916105a3565b820191906000526020600020905b81548152906001019060200180831161058657829003601f168201915b5050505050905083565b60066000848152602001908152602001600020600001548303610605576040517f08c379a00000000000000000000000000000000000000000000000000000000081526004016105fc906115ff565b60405180910390fd5b604051806060016040528084815260200183815260200182815250600760008201518160000155602082015181600101908161064191906117cb565b50604082015181600201908161065791906117cb565b50905050600a6007908060018154018082558091505060019003906000526020600020906003020160009091909190915060008201548160000155600182018160010190816106a691906118b3565b50600282018160020190816106bb91906118b3565b50505060076006600085815260200190815260200160002060008201548160000155600182018160010190816106f191906118b3565b506002820181600201908161070691906118b3565b509050506001600081548092919061071d906119ca565b9190505550505050565b60608180600660008381526020019081526020016000206000015414610782576040517f08c379a000000000000000000000000000000000000000000000000000000000815260040161077990611a5e565b60405180910390fd5b82600015156005600083815260200190815260200160002060010160009054906101000a900460ff161515146107ed576040517f08c379a00000000000000000000000000000000000000000000000000000000081526004016107e490611aca565b60405180910390fd5b6001546002541115610834576040517f08c379a000000000000000000000000000000000000000000000000000000000815260040161082b90611b36565b60405180910390fd5b60016005600086815260200190815260200160002060010160006101000a81548160ff02191690831515021790555060026000815480929190610876906119ca565b91905055506004600081548092919061088e906119ca565b91905055506040518060400160405280600681526020017f566f74656421000000000000000000000000000000000000000000000000000081525092505050919050565b60066020528060005260406000206000915090508060000154908060010180546108fb90611582565b80601f016020809104026020016040519081016040528092919081815260200182805461092790611582565b80156109745780601f1061094957610100808354040283529160200191610974565b820191906000526020600020905b81548152906001019060200180831161095757829003601f168201915b50505050509080600201805461098990611582565b80601f01602080910402602001604051908101604052809291908181526020018280546109b590611582565b8015610a025780601f106109d757610100808354040283529160200191610a02565b820191906000526020600020905b8154815290600101906020018083116109e557829003601f168201915b5050505050905083565b60045481565b60008054906101000a900473ffffffffffffffffffffffffffffffffffffffff1681565b610a3e610f2d565b60066000838152602001908152602001600020600001548214610a96576040517f08c379a0000000000000000000000000000000000000000000000000000000008152600401610a8d90611ba2565b60405180910390fd5b6006600083815260200190815260200160002060405180606001604052908160008201548152602001600182018054610ace90611582565b80601f0160208091040260200160405190810160405280929190818152602001828054610afa90611582565b8015610b475780601f10610b1c57610100808354040283529160200191610b47565b820191906000526020600020905b815481529060010190602001808311610b2a57829003601f168201915b50505050508152602001600282018054610b6090611582565b80601f0160208091040260200160405190810160405280929190818152602001828054610b8c90611582565b8015610bd95780601f10610bae57610100808354040283529160200191610bd9565b820191906000526020600020905b815481529060010190602001808311610bbc57829003601f168201915b5050505050815250509050919050565b60035481565b60608180600660008381526020019081526020016000206000015414610c4a576040517f08c379a0000000000000000000000000000000000000000000000000000000008152600401610c4190611a5e565b60405180910390fd5b82600015156005600083815260200190815260200160002060010160009054906101000a900460ff16151514610cb5576040517f08c379a0000000000000000000000000000000000000000000000000000000008152600401610cac90611aca565b60405180910390fd5b6001546002541115610cfc576040517f08c379a0000000000000000000000000000000000000000000000000000000008152600401610cf390611b36565b60405180910390fd5b60016005600086815260200190815260200160002060010160006101000a81548160ff02191690831515021790555060026000815480929190610d3e906119ca565b919050555060036000815480929190610d56906119ca565b91905055506040518060400160405280600681526020017f566f74656421000000000000000000000000000000000000000000000000000081525092505050919050565b60025481565b6060600a805480602002602001604051908101604052809291908181526020016000905b82821015610f24578382906000526020600020906003020160405180606001604052908160008201548152602001600182018054610e0190611582565b80601f0160208091040260200160405190810160405280929190818152602001828054610e2d90611582565b8015610e7a5780601f10610e4f57610100808354040283529160200191610e7a565b820191906000526020600020905b815481529060010190602001808311610e5d57829003601f168201915b50505050508152602001600282018054610e9390611582565b80601f0160208091040260200160405190810160405280929190818152602001828054610ebf90611582565b8015610f0c5780601f10610ee157610100808354040283529160200191610f0c565b820191906000526020600020905b815481529060010190602001808311610eef57829003601f168201915b50505050508152505081526020019060010190610dc4565b50505050905090565b60405180606001604052806000815260200160608152602001606081525090565b6000604051905090565b600080fd5b600080fd5b6000819050919050565b610f7581610f62565b8114610f8057600080fd5b50565b600081359050610f9281610f6c565b92915050565b600060208284031215610fae57610fad610f58565b5b6000610fbc84828501610f83565b91505092915050565b610fce81610f62565b82525050565b60008115159050919050565b610fe981610fd4565b82525050565b60006040820190506110046000830185610fc5565b6110116020830184610fe0565b9392505050565b600060208201905061102d6000830184610fc5565b92915050565b600081519050919050565b600082825260208201905092915050565b60005b8381101561106d578082015181840152602081019050611052565b60008484015250505050565b6000601f19601f8301169050919050565b600061109582611033565b61109f818561103e565b93506110af81856020860161104f565b6110b881611079565b840191505092915050565b60006060820190506110d86000830186610fc5565b81810360208301526110ea818561108a565b905081810360408301526110fe818461108a565b9050949350505050565b600080fd5b600080fd5b7f4e487b7100000000000000000000000000000000000000000000000000000000600052604160045260246000fd5b61114a82611079565b810181811067ffffffffffffffff8211171561116957611168611112565b5b80604052505050565b600061117c610f4e565b90506111888282611141565b919050565b600067ffffffffffffffff8211156111a8576111a7611112565b5b6111b182611079565b9050602081019050919050565b82818337600083830152505050565b60006111e06111db8461118d565b611172565b9050828152602081018484840111156111fc576111fb61110d565b5b6112078482856111be565b509392505050565b600082601f83011261122457611223611108565b5b81356112348482602086016111cd565b91505092915050565b60008060006060848603121561125657611255610f58565b5b600061126486828701610f83565b935050602084013567ffffffffffffffff81111561128557611284610f5d565b5b6112918682870161120f565b925050604084013567ffffffffffffffff8111156112b2576112b1610f5d565b5b6112be8682870161120f565b9150509250925092565b600060208201905081810360008301526112e2818461108a565b905092915050565b600073ffffffffffffffffffffffffffffffffffffffff82169050919050565b6000611315826112ea565b9050919050565b6113258161130a565b82525050565b6000602082019050611340600083018461131c565b92915050565b61134f81610f62565b82525050565b600082825260208201905092915050565b600061137182611033565b61137b8185611355565b935061138b81856020860161104f565b61139481611079565b840191505092915050565b60006060830160008301516113b76000860182611346565b50602083015184820360208601526113cf8282611366565b915050604083015184820360408601526113e98282611366565b9150508091505092915050565b60006020820190508181036000830152611410818461139f565b905092915050565b600081519050919050565b600082825260208201905092915050565b6000819050602082019050919050565b600060608301600083015161145c6000860182611346565b50602083015184820360208601526114748282611366565b9150506040830151848203604086015261148e8282611366565b9150508091505092915050565b60006114a78383611444565b905092915050565b6000602082019050919050565b60006114c782611418565b6114d18185611423565b9350836020820285016114e385611434565b8060005b8581101561151f5784840389528151611500858261149b565b945061150b836114af565b925060208a019950506001810190506114e7565b50829750879550505050505092915050565b6000602082019050818103600083015261154b81846114bc565b905092915050565b7f4e487b7100000000000000000000000000000000000000000000000000000000600052602260045260246000fd5b6000600282049050600182168061159a57607f821691505b6020821081036115ad576115ac611553565b5b50919050565b7f416c726561647920526567697374657264210000000000000000000000000000600082015250565b60006115e960128361103e565b91506115f4826115b3565b602082019050919050565b60006020820190508181036000830152611618816115dc565b9050919050565b60008190508160005260206000209050919050565b60006020601f8301049050919050565b600082821b905092915050565b6000600883026116817fffffffffffffffffffffffffffffffffffffffffffffffffffffffffffffffff82611644565b61168b8683611644565b95508019841693508086168417925050509392505050565b6000819050919050565b60006116c86116c36116be84610f62565b6116a3565b610f62565b9050919050565b6000819050919050565b6116e2836116ad565b6116f66116ee826116cf565b848454611651565b825550505050565b600090565b61170b6116fe565b6117168184846116d9565b505050565b5b8181101561173a5761172f600082611703565b60018101905061171c565b5050565b601f82111561177f576117508161161f565b61175984611634565b81016020851015611768578190505b61177c61177485611634565b83018261171b565b50505b505050565b600082821c905092915050565b60006117a260001984600802611784565b1980831691505092915050565b60006117bb8383611791565b9150826002028217905092915050565b6117d482611033565b67ffffffffffffffff8111156117ed576117ec611112565b5b6117f78254611582565b61180282828561173e565b600060209050601f8311600181146118355760008415611823578287015190505b61182d85826117af565b865550611895565b601f1984166118438661161f565b60005b8281101561186b57848901518255600182019150602085019450602081019050611846565b868310156118885784890151611884601f891682611791565b8355505b6001600288020188555050505b505050505050565b6000815490506118ac81611582565b9050919050565b8181036118c1575050611999565b6118ca8261189d565b67ffffffffffffffff8111156118e3576118e2611112565b5b6118ed8254611582565b6118f882828561173e565b6000601f8311600181146119275760008415611915578287015490505b61191f85826117af565b865550611992565b601f1984166119358761161f565b96506119408661161f565b60005b8281101561196857848901548255600182019150600185019450602081019050611943565b868310156119855784890154611981601f891682611791565b8355505b6001600288020188555050505b5050505050505b565b7f4e487b7100000000000000000000000000000000000000000000000000000000600052601160045260246000fd5b60006119d582610f62565b91507fffffffffffffffffffffffffffffffffffffffffffffffffffffffffffffffff8203611a0757611a0661199b565b5b600182019050919050565b7f20696e636f727265637420766f74657220696400000000000000000000000000600082015250565b6000611a4860138361103e565b9150611a5382611a12565b602082019050919050565b60006020820190508181036000830152611a7781611a3b565b9050919050565b7f416c726561647920566f74656420210000000000000000000000000000000000600082015250565b6000611ab4600f8361103e565b9150611abf82611a7e565b602082019050919050565b60006020820190508181036000830152611ae381611aa7565b9050919050565b7f566f74696e67204f566572210000000000000000000000000000000000000000600082015250565b6000611b20600c8361103e565b9150611b2b82611aea565b602082019050919050565b60006020820190508181036000830152611b4f81611b13565b9050919050565b7f55736572204e6f74205265676973746572656421000000000000000000000000600082015250565b6000611b8c60148361103e565b9150611b9782611b56565b602082019050919050565b60006020820190508181036000830152611bbb81611b7f565b905091905056fea2646970667358221220b231e45c7b15ff58945f9d171a4abacca67b893d99a0a7acd562bd847b9b639164736f6c63430008130033",
  "immutableReferences": {},
  "source": "//SPDX-License-Identifier:GPL-3.0\r\npragma solidity >=0.4.16 <0.9.0;\r\n\r\ncontract Voting {\r\n // Structure to represent a candidate\r\n    struct Candidate {\r\n        uint id;\r\n        bool voted;\r\n       \r\n    }\r\n//struct for voterlist\r\n    struct VoterList{\r\n        uint id;\r\n        string name;\r\n        string ballotName;\r\n    }\r\n\r\n//state variables \r\naddress public owner;\r\nuint public totalVotes=0;\r\n\r\nuint public votes=0;\r\n\r\nuint public TDP=0;\r\n\r\nuint public YCP=0;\r\n\r\n\r\n//contructor for owner\r\nconstructor(){\r\n    owner=msg.sender;\r\n}\r\n\r\n\r\n    \r\n// Mapping to store candidates\r\nmapping(uint => Candidate) public candidateMap;\r\n    \r\n\r\n//voter Details in the Voter\r\nmapping(uint=>VoterList)public voterListMap;\r\n    \r\n\r\nVoterList public  voter;\r\n\r\nVoterList[] public AllVoter;\r\n\r\n//Give registration for Only the Head with msg.sender Address\r\nfunction  VoteRegister(uint _id,string memory _name,string memory _ballotname)public {\r\nrequire(_id!=voterListMap[_id].id,\"Already Registerd!\");\r\n\r\nvoter=VoterList(_id,_name,_ballotname);\r\n\r\n//set to AllVoter\r\nAllVoter.push(voter);\r\nvoterListMap[_id]=voter;\r\n//total votes\r\ntotalVotes++;\r\n\r\n}\r\n//Checking the voter is Register or not\r\n\r\nfunction Check_Registration(uint _id)public view  returns(VoterList memory){\r\n    require(_id==voterListMap[_id].id,\"User Not Registered!\");\r\n    return voterListMap[_id];\r\n\r\n}\r\n\r\n//Returning the all Registerd Voters\r\n\r\nfunction GetAllVoters()public view returns(VoterList[] memory){\r\n    return AllVoter;\r\n}\r\n\r\n\r\n//start Voting\r\nmodifier check_votes(){\r\n    require(votes<=totalVotes,\"Voting OVer!\");\r\n    _;\r\n}\r\n\r\nmodifier check_voter(uint _id){\r\n    require(voterListMap[_id].id==_id,\" incorrect voter id\");\r\n    _;\r\n}\r\n\r\nmodifier voted_or_not(uint _id){\r\n    require(candidateMap[_id].voted==false,\"Already Voted !\");\r\n    _;\r\n}\r\n\r\n//partiwise polling\r\n\r\nfunction YCP_polling(uint _id)public  check_voter(_id) voted_or_not(_id)  check_votes returns(string memory){\r\n    \r\n    candidateMap[_id].voted=true;\r\n    votes++;\r\n    YCP++;\r\n    return \"Voted!\";\r\n\r\n}\r\n\r\n\r\nfunction TDP_polling(uint _id)public  check_voter(_id) voted_or_not(_id)  check_votes returns(string memory){\r\n    \r\n    candidateMap[_id].voted=true;\r\n    votes++;\r\n    TDP++;\r\n    return \"Voted!\";\r\n\r\n}\r\n\r\n\r\n}\r\n",
  "sourcePath": "C:\\Users\\pedda\\OneDrive\\Desktop\\Voting\\contracts\\MyContract.sol",
  "compiler": {
    "name": "solc",
    "version": "0.8.19+commit.7dd6d404.Emscripten.clang"
  },
  "schemaVersion": "3.4.16",
  "updatedAt": "2024-05-20T04:00:06.701Z",
  "networkType": "ethereum",
  "devdoc": {
    "kind": "dev",
    "methods": {},
    "version": 1
  },
  "userdoc": {
    "kind": "user",
    "methods": {},
    "version": 1
  }
}